:020000040800F2
:100000002807002089010008FF130008A912000832
:10001000FD1300088F0200084917000800000000C7
:1000200000000000000000000000000003140008B1
:1000300091020008000000000114000805140008E7
:10004000A3010008A3010008A3010008A301000800
:10005000A3010008A3010008A3010008A3010008F0
:10006000A3010008A3010008A3010008A3010008E0
:10007000A3010008A3010008A3010008A3010008D0
:10008000A3010008A3010008A3010008A3010008C0
:10009000A3010008A3010008A3010008A3010008B0
:1000A000A3010008A3010008A3010008A3010008A0
:1000B000A3010008A301000869140008A3010008B7
:1000C000A3010008A3010008A3010008A301000880
:1000D000A30100083D170008A3010008A3010008C0
:1000E000A3010008A3010008A301000800F002F822
:1000F00000F03AF80AA090E8000C82448344AAF188
:100100000107DA4501D100F02FF8AFF2090EBAE885
:100110000F0013F0010F18BFFB1A43F0010318473B
:100120002C1B00004C1B0000103A24BF78C878C17B
:10013000FAD8520724BF30C830C144BF04680C60ED
:10014000704700000023002400250026103A28BF35
:1001500078C1FBD8520728BF30C148BF0B60704739
:100160001FB51FBD10B510BD00F058F81146FFF7C0
:10017000F7FF01F047FB00F076F803B4FFF7F2FF5A
:1001800003BC00F07DF8000009488047094800479B
:10019000FEE7FEE7FEE7FEE7FEE7FEE7FEE7FEE737
:1001A000FEE7FEE704480549054A064B7047000094
:1001B00067140008ED00000828010020280700202F
:1001C00028030020280300204FF0000200B513464A
:1001D00094469646203922BFA0E80C50A0E80C5067
:1001E000B1F12001BFF4F7AF090728BFA0E80C5018
:1001F00048BF0CC05DF804EB890028BF40F8042B11
:1002000008BF704748BF20F8022B11F0804F18BF7D
:1002100000F8012B7047704770477047754600F033
:100220002BF8AE4605006946534620F00700854688
:1002300018B020B5FFF7B6FFBDE820404FF000062C
:100240004FF000074FF000084FF0000B21F00701BE
:10025000AC46ACE8C009ACE8C009ACE8C009ACE801
:10026000C0098D46704710B50446AFF300802046A4
:10027000BDE81040FFF781BF00487047C400002070
:1002800001491820ABBEFEE7260002007047FEE7DA
:10029000704772B6FEE710B590F8211000220229CF
:1002A00005D00421816380F82020012010BD016861
:1002B0000B6823F00E030B6001680B6823F0010349
:1002C0000B6090F84030C46B012101FA03F36360C6
:1002D00080F8211080F82020104610BD10B590F84D
:1002E00021100024022903D00421816301243DE070
:1002F00001680A6822F00E020A6001680A6822F0AA
:1003000001020A601A4A0168914201D1012121E0EB
:10031000174A1432914201D110211BE0144A2832AD
:10032000914201D1891515E0114A3C32914201D127
:1003300089140FE00E4A5032914202D14FF48031BD
:1003400008E00B4A6432914202D14FF4801101E07F
:100350004FF08071064A083A5160012180F821105F
:10036000002180F82010416B01B18847204610BD64
:10037000080002402DE9F84FDFF8B8910024A9F1F8
:10038000040B23460F2709F1040AABF1040EC9E060
:100390000125A5402A40AA427DD1674ED1F804C06C
:1003A000ACEB0608B44532D014DCBCF1030F3AD0F4
:1003B00009DCBCF1000F2AD0BCF1010F1CD0BCF14C
:1003C000020F31D11DE0BCF1110F17D0BCF1120F9B
:1003D0002AD119E0B8F5881F19D006DCB8F5803F9E
:1003E00015D0B8F5801F1FD111E0B8F5001F0ED051
:1003F000B8F5041F18D10AE0CB6815E0CB681B1DC7
:1004000012E0CB6808330FE0CB680C330CE08B684C
:100410002BB1012B4FF0080303D0456104E0042306
:1004200002E0056100E00023FF2A01D8064601E052
:1004300000F104064FEA840501D9A5F12005D6F89C
:10044000008007FA05FC28EA0C0803FA05F548EADB
:100450000508C6F800804D68ED0062D5374DAE69DD
:1004600046F00106AE61AD6924F0030605F0010512
:100470000095334D06EB050CDCF80850A607360F47
:1004800007FA06F825EA0805DFF8B880404503D1E9
:100490004FF0000817E044E0DFF8AC80404502D19F
:1004A0004FF001080FE0DFF8A480404502D14FF083
:1004B000020808E0DFF89880404502D14FF00308B9
:1004C00001E04FF0040808FA06F848EA0508CCF8FD
:1004D00008804D68D9F80060ED024D4601D51643FD
:1004E00000E096432E604D68DAF80060AD02554694
:1004F00001D5164300E096432E604D68DBF800609E
:10050000AD035D4601D5164300E096432E604D686D
:10051000DEF80060ED03754601D5164300E0964312
:100520002E60641C0D682A46E5407FF431AFBDE8BB
:10053000F88F000008040140000011100010024074
:100540000000014000080140000C01400010014083
:1005500000140140C26821EA02030A4043EA024152
:10056000016170470AB1016170470904FBE70000AF
:100570000148806870470000000000200248816840
:10058000027811448160704700000020074810B5D0
:10059000016841F010010160032000F075F80F20A0
:1005A00000F006F800F024F8002010BD0020024002
:1005B00070B50D4D04464FF47A712878B1FBF0F018
:1005C0000A490968B1FBF0F000F0DCFA48B9102CD8
:1005D00007D200222146501E00F036F800206C6041
:1005E00070BD012070BD0000000000200C00002044
:1005F0000C4808B5816941F001018161816901F010
:1006000001010091C16941F08051C161C06900F0F0
:10061000805000900448416821F0E06141F0007191
:10062000416008BD0010024000000140002809DBC5
:1006300000F01F02012191404009800000F1E020FC
:10064000C0F8001170470000F0B40E4B1B680C4658
:10065000C3F30223C3F10705042D00D90425191D96
:10066000072901D2002300E0DB1E012606FA05F16E
:10067000491E214099409E40761E16403143F0BCF1
:1006800001F063B80CED00E0064900F007020868CD
:100690004FF6FF03184040EA0220034A1043086067
:1006A000704700000CED00E00000FA052DE9F0476E
:1006B0000F46050061D0434E306800F00700B84295
:1006C00009D2306820F0070038433060306800F00D
:1006D0000700B84251D128683B4C810712D540072A
:1006E00003D5606840F4E06060602878000703D5B7
:1006F000606840F4605060606068A96820F0F000B5
:10070000084360602878C00728D06868012810D0A6
:100710002168022810D0890700292EDA616821F0AB
:10072000030101436160FFF723FF804641F28839EE
:100730000DE021688903EFE78901EDE7FFF718FF76
:10074000A0EB0801494502D90320BDE8F0876068A5
:10075000696800F00C00B0EB810FEFD1306800F059
:100760000700B8420BD9306820F0070038433060EA
:10077000306800F00700B84201D00120E5E7287892
:10078000400705D56068E96820F4E06008436060D0
:100790002878000706D56068296920F4605040EA8F
:1007A000C100606000F038F86168084AC1F30311C5
:1007B000515CC8400649086006480068FFF7F8FE2B
:1007C0000020C2E70020024000100240321B000857
:1007D0000C00002004000020044805490068496816
:1007E000044AC1F30221515CC84070470C0000204C
:1007F00000100240421B000804480549006849688F
:10080000044AC1F3C221515CC84070470C0000206B
:1008100000100240421B00080E4A51680E4801F0C9
:100820000C03042B11D0082B0FD10C48C1F38343C8
:10083000C903C05C0AD55168084AC1F34041921E01
:10084000515C054A5043B0FBF1F0704704494843FE
:10085000704700000010024000127A00221B0008BE
:1008600000093D002DE9F84F040070D02078C04DFC
:10087000C00749D06868C0F38100012807D06868C4
:10088000C0F38100022809D16868C00306D5286832
:10089000800339D560680028E7D035E06068B0F59E
:1008A000803F0BD010B1B0F5A02F11D0286820F4F4
:1008B00080302860286820F4802002E0286840F416
:1008C00080302860606890B1FFF752FE06460AE06B
:1008D000286840F480202860F0E700BFFFF748FE5A
:1008E000801B642873D828688003F7D50CE0FFF7D5
:1008F0003FFE064605E000BFFFF73AFE801B642876
:10090000F0D828688003F7D420789A4E80074FF0FB
:1009100001094FF0000839D5686810F00C0F07D0B6
:100920006868C0F38100022809D16868C00306D452
:100930002868800714D52069012808D110E02069B3
:10094000B0B1C6F80090FFF713FE074605E00AE1D4
:10095000FFF70EFEC01B0228C4D828688007F7D511
:100960002868616920F0F80040EAC10028600DE0C5
:10097000C6F80080FFF7FCFD074604E0FFF7F8FD2E
:10098000C01B022823D828688007F7D420780007E6
:100990002CD57948A169D9B1C0F80090FFF7E8FDDE
:1009A000074604E0FFF7E4FDC01B02280FD8686A81
:1009B0008007F7D571484FF4FA510068B0FBF1F0A9
:1009C000009000BF0098411E0091FAD20EE080E036
:1009D000C0F80080FFF7CCFD074604E0FFF7C8FD34
:1009E000C01B022875D8686A8007F7D420784007B2
:1009F00060D5E8690027C00008D4E86940F080505D
:100A0000E861E869012700F0805000905C480168C7
:100A1000C90513D40168834641F480710160FFF772
:100A2000A7FD824606E000BFFFF7A2FDA0EB0A008B
:100A300064284ED8DBF80000C005F5D5E068012831
:100A40000AD008B1052813D0286A20F001002862D6
:100A5000286A20F0040002E0286A40F001002862C1
:100A6000E06841F2883B98B1FFF782FD82460BE0D7
:100A7000286A40F004002862EEE700BFFFF778FD27
:100A8000A0EB0A0159455AD8286A8007F6D50CE030
:100A9000FFF76EFD824605E0FFF76AFDA0EB0A0155
:100AA00059454CD8286A8007F6D41FB1E86920F070
:100AB0008050E861E06988B36968C1F38101022967
:100AC00044D00228C6F8608004D0FFF751FD0446E8
:100AD00038E034E0FFF74CFD074604E0FFF748FD3F
:100AE000C01B02282BD828688001F7D4206AB0F5F3
:100AF000803F05D16868A16820F400300843686031
:100B0000D4E908010843696821F474110843686056
:100B1000C6F86090FFF72CFD044606E025E000BF14
:100B2000FFF726FD001B022809D828688001F7D5A9
:100B30001BE000BFFFF71CFD001B022802D90320A9
:100B4000BDE8F88F28688001F4D40EE00128F7D0C2
:100B50006868226A00F48031914204D1616A00F42D
:100B60007010884201D00120EAE70020E8E7000089
:100B70000010024000004242800442420C0000206B
:100B80000070004010B5401EB0F1807F01D30120FD
:100B900010BD4FF0E02460610F21601700F0D5FD1B
:100BA0000020A06107202061002010BD7047704721
:100BB00070B590F83C20012A26D0012480F83C40F2
:100BC000022280F83D2003685A689D6822F0700672
:100BD0000A6832435A600D4B02689A4208D0B2F15B
:100BE000804F05D00A4B9A4202D00A4B9A4204D158
:100BF000496825F080031943916080F83D40002149
:100C000080F83C10084670BD022070BD002C0140E9
:100C1000000400400008004010B5040003D094F820
:100C20003D0010B107E0012010BD002084F83C0019
:100C3000204600F01FF8022084F83D00211D2068A6
:100C400000F01EFC012084F8460084F83E0084F881
:100C50003F0084F8400084F8410084F8420084F8A2
:100C6000430084F8440084F8450084F83D000020E7
:100C700010BD000008B500680B49884212D10B482E
:100C8000C16941F00401C161C069002200F00400A3
:100C9000009011461E20FFF7D7FCBDE808401E203B
:100CA000FFF7C4BC08BD000000080040001002406F
:100CB00090F83D10012901D001207047022180F8F1
:100CC0003D100168CA6842F00102CA6000680B4921
:100CD000884208D0B0F1804F05D00949884202D03F
:100CE0000849884204D1816801F00701062903D030
:100CF000016841F00101016000207047002C0140B3
:100D000000040040000800400168CA6822F00102A7
:100D1000CA6001680A6A41F211131A4207D10A6ACD
:100D20009B101A4203D10A6822F001020A600121D5
:100D300080F83D100020704770B5044690F83C00E4
:100D40000025012817D0012684F83C60022084F891
:100D50003D002068826822F0770222F47F428260A0
:100D60000868502838D00DDC20284FD005DC90B31F
:100D7000102811D14AE0022070BD302846D040280A
:100D80000AD13BE060282FD070280DD0B0F5805FED
:100D900003D0B0F5005F12D0012584F83D6000203B
:100DA00084F83C00284670BDCB68D1E90121206859
:100DB00000F0A2FB2068816841F0770109E0CB6870
:100DC000D1E90121206800F097FB2068816841F497
:100DD00080418160E1E719E0CA684968206800F055
:100DE0009DFB5021206806E0CA684968206800F031
:100DF000A6FB6021206800F089FBCEE7CA6849683D
:100E0000206800F08BFB40212068F4E7226801464F
:100E10001046F0E770472DE9F04104460068C668C7
:100E200005694FF00007A90713D5B10711D5F91EC1
:100E3000016101202077206880698007204602D068
:100E4000FFF7E8FF04E000F07EF8204600F07CF8B1
:100E50002777680716D5700714D521686FF004004E
:100E60000861022020772068806910F4407F2046C6
:100E700002D0FFF7CFFF04E000F065F8204600F055
:100E800063F82777280715D5300713D521686FF049
:100E900008000861042020772068C0698007204688
:100EA00002D0FFF7B7FF04E000F04DF8204600F055
:100EB0004BF82777E80616D5F00614D521686FF0B1
:100EC00010000861082020772068C06910F4407F76
:100ED000204602D0FFF79EFF04E000F034F82046E1
:100EE00000F032F82777E80708D0F00706D021682D
:100EF0006FF001000861204600F027F8280608D5A9
:100F0000300606D521686FF0800008612046FFF7A3
:100F10004DFE680608D5700606D521686FF04000C2
:100F20000861204600F012F8A8060AD5B00608D5D8
:100F300021686FF0200008612046BDE8F041FFF70E
:100F400036BEBDE8F0817047704770477047704704
:100F500070470000F8B5016804460868CA684B6924
:100F600010F00F0F4FF0000559D003F0010602F406
:100F70009077374365D0C10705D0D10503D5616CA3
:100F800041F001016164410705D5D90703D0616CC7
:100F900041F002016164810705D5D90703D0616C76
:100FA00041F004016164010707D502F020013143DB
:100FB00003D0616C41F008016164616C00293AD092
:100FC000800604D5900602D5204600F0F9FA206884
:100FD0004069616CC0F38010090700D460B32046FB
:100FE00000F0C7FA20684069400621D52068143017
:100FF00050E8001F21F0400140E80012002AF5D11E
:10100000E06BA8B16D494163E06BFFF767F9002819
:1010100011D0E06B416B01B0BDE8F040084783069A
:101020000FD593060DD52046BDE8F84000F0C8BAAC
:101030002046FFF78DFFF8BD2046FFF789FF656466
:10104000F8BD266B2023012E7CD1C6067AD5D606A4
:1010500078D508684868009048694FF00206400655
:1010600040D5E16B086840680004000CE8D0A28D10
:101070008242E5D9E085886920282DD020680C308F
:1010800050E8001F21F4807140E80012002AF5D1D9
:101090002068143050E8001F21F0010140E80012E0
:1010A000002AF5D12068143050E8001F21F04001DB
:1010B00040E80012002AF5D184F842302563206808
:1010C0000C3050E8001F21F0100140E80012002A07
:1010D000F5D1E06BFFF7DFF86663A08DE18D401A74
:1010E00081B22AE0A08DE18D401A81B2E08D002806
:1010F000A6D00029A4D022680C3252E8000F20F4B8
:10110000907042E80007002FF5D12068143050E8B5
:10111000002F22F0010240E80027002FF5D184F8CB
:101120004230256320680C3050E8002F22F0100276
:1011300040E80023002BF5D166632046FFF707FF48
:10114000F8BDFFE705062BD5150629D594F8410013
:101150002128F5D1A068B0F5805F01D12069B0B138
:10116000206A411C2162216800784860E08C401EA2
:101170000004000CE084E3D12068C16821F0800104
:10118000C1602068C16841F04001C160D8E7206AB1
:101190000088C0F308004860206A801C2062E5E7F0
:1011A0004006CDD55006CBD5CA68204622F0400275
:1011B000CA6084F8413000F076F8C1E76315000892
:1011C00070B5040004D094F84100002510B106E089
:1011D000012070BD84F84050204600F023F8242000
:1011E00084F841002068C16821F40051C1602046A4
:1011F00000F048FA2068016921F4904101612068FB
:10120000416921F02A0141612068C16841F400511F
:10121000C1606564202084F8410084F84200656361
:10122000002070BD30B585B0002400940194029474
:1012300003940068184988422CD11848816941F408
:1012400080418161816901F480410491816941F0AB
:10125000040181618069124D00F0040004904FF494
:1012600000700090022001900320039069462846F8
:10127000FFF780F82815CDE9000469462846029456
:10128000FFF778F8002211462520FFF7DDF9252029
:10129000FFF7CCF905B030BD003801400010024026
:1012A0000008014070477047FEE700002DE9F0415B
:1012B00086B0002425480094019402940394816927
:1012C00041F010018161816901F01001049181698F
:1012D00041F020018161816901F02001049181695F
:1012E00041F008018161816901F00801049181697F
:1012F00041F0040181618069154F00F004004FF452
:1013000000550490002229463846FFF72BF9DFF8F4
:101310004480AE10002231464046FFF723F91120E9
:10132000CDE90050012569463846CDE90245FFF771
:1013300021F80320CDE90240CDE900656946404629
:10134000FFF718F806B0BDE8F08100000010024079
:1013500000100140000C014010B586B00024184870
:101360000094019402940394049414490594016038
:1013700041F61F41C0E9011442F20F71C0E90314A4
:1013800080218161FFF748FC08B1FEF782FF4FF42E
:101390008050009069460A48FFF7CEFC08B1FEF77E
:1013A00078FF049404A906480594FFF701FC00287F
:1013B00001D0FEF76EFF06B010BD0000000800402F
:1013C0001C0000200C4810B50A4901604FF4E131BF
:1013D0004160002181600C22C160C0E9041281617A
:1013E000C161FFF7EDFE002803D0BDE81040FEF715
:1013F00050BF10BD0038014064000020FEE7FEE74A
:1014000070477047FFF7BAB830B58FB028216846EB
:10141000FEF7DAFE14210AA8FEF7D6FE0121080421
:10142000CDE900100024029402250491CDE9075073
:101430004FF4E01009906846FFF714FA08B172B64D
:10144000FEE70F20CDE90A054FF48060CDE90C409E
:1014500002210AA80E94FFF729F9002801D072B6DC
:10146000FEE70FB030BD704710B50448FFF7D3FC5E
:10147000BDE81040012000F00BBB00001C00002064
:10148000F0B50268194B1A4C1A4D4FF0804798423C
:1014900005D0B84203D0A04201D0A84203D122F027
:1014A00070064A683243984205D0B84203D0A04241
:1014B00001D0A84203D122F44074CA6822434C6987
:1014C00022F08002224302608A68C2620A68826255
:1014D000984201D109690163012141610169C9078C
:1014E00003D0016921F001010161F0BD002C014030
:1014F000000400400008004010B5846842EA03225E
:1015000024F47F440A432243826010BD826822F0A3
:1015100070020A4342F007018160704710B5036A08
:10152000046A24F001040462846924F0F00444EAAB
:10153000021423F00A020A438461026210BD10B54E
:10154000036A046A24F010040462846923F0A0038F
:1015500024F4704444EA023243EA011182610162D8
:1015600010BD10B5406A0021C185C184FFF7F0FCB1
:1015700010BD01680C3151E8002F22F4907241E84F
:101580000023002BF5D10168143151E8002F22F01F
:10159000010241E80023002BF5D1016B012909D19B
:1015A00001680C3151E8002F22F0100241E80023BD
:1015B000002BF5D1202180F84210002101637047F3
:1015C00008B590F84210222901D0022008BD826897
:1015D0004FF480539A4201D1016921B1816A9A4244
:1015E0001BD04AB10AE00268816A5268C2F308025D
:1015F0000A80816A891C08E0026972B10268526837
:1016000002F07F020A70816A491C8162C18D491E05
:101610000904090CC18503D01BE002685268F1E798
:101620000168CA6822F02002CA600168CA6822F410
:101630008072CA6001684A6922F001024A61202171
:1016400080F8421000214163026B012A03D0FFF7AA
:1016500029FE002008BD016301680C3151E8002F0C
:1016600022F0100241E80023002BF5D101680A683E
:10167000D20602D50A6849680091818DFFF767FCA0
:10168000E7E7000070B5044600680169E26821F4EC
:101690004051114301612169A06808436169084311
:1016A0002168CA6841F20C639A430243CA60206809
:1016B0004169A26921F44071114341611E492068CA
:1016C000884202D1FFF798F801E0FFF785F800EBB8
:1016D000C00101EB0012606864218000B2FBF0F3EE
:1016E000B3FBF1F36FF018067343B2FBF0F5B2FBF6
:1016F000F0F605EB8305322303EB0515B5FBF1F599
:10170000B6FBF1F605F0F00505EB0615B2FBF0F6B9
:10171000B2FBF0F0B0FBF1F06FF01802504306EBB3
:10172000800003EB0010B0FBF1F0216800F00F0027
:101730002844886070BD0000003801400148FFF770
:1017400009BC000064000020FEE70907090E00281C
:1017500004DB00F1E02080F80014704700F00F0077
:1017600000F1E02080F8141D70470000F0B5054638
:101770004FF6FF7402200C4E2246002101EB410778
:1017800056F82730A3420AD0AB4201D8002300E02C
:101790005B1B46F827309A4201D91A460846491C75
:1017A000C9B20229EAD3F0BDAC000020094900EB20
:1017B00040024FF6FF7341F8223001EB82014A6884
:1017C00012B14B6801221A70097A002901D000F089
:1017D000D7B87047AC000020012070477047000068
:1017E00010B54FF400610548FEF7B4FEBDE81040A7
:1017F0004FF400510248FEF7ADBE0000000C01405E
:1018000000100140FEF7C2FEFFF7FEFDFFF74EFDA0
:10181000FFF7D8FDFFF7A0FD00F014F8FEE7000089
:1018200070B5074C002530B1656001206070BDE8DF
:10183000704000F025B800F029F8657070BD000018
:101840001000002000F042F800F004F9002000F041
:1018500097F800BF00F020F830B10128FAD000F06E
:1018600043F800F019F8F5E7FFF7BAFF0123034A40
:101870000221002000F0AAF8ECE700001B00002085
:101880000148FFF715BA00001C0000200148FFF7CF
:101890003BBA00001C0000202DE9F0410124FFF7B5
:1018A0009BFF8046A71E074D074E04E003D140462C
:1018B000FFF794FF3C463078641E2856002CF5D183
:1018C000BDE8F0814A1B00081800002005490020EF
:1018D0000870491C0A5C42F001020A54401C0228AC
:1018E000F8DB7047180000202DE9F0470124FFF7CE
:1018F00073FF104E012581464FF0FF38771C04E03E
:1019000003D14846FFF76AFF44460020395C32782D
:10191000C90705FA00F102D08A43327001E0114391
:101920003170401C0228F1DB641E002CE8D1BDE8B8
:10193000F0870000180000202DE9F047054601243B
:10194000FFF74AFF0D4F012682464FF0FF39AE40A8
:10195000A7F1010804E003D15046FFF73FFF4C46D2
:10196000785D40F00100785598F80010B14388F890
:101970000010641E002CEED1BDE8F0871900002095
:101980002DE9F04706460125FFF726FF0E4F0124FB
:1019900082464FF0FF39B440A7F1010804E003D1BB
:1019A0005046FFF71BFF4D46B85D20F00100B855CB
:1019B00098F8002044EA020188F800106D1E002DFE
:1019C000EDD1BDE8F0870000190000202DE9F84FA7
:1019D000984692460E4681464FF0FF3702280ED2B7
:1019E000002E0CDDB6EB174009D00125FFF7F4FE01
:1019F000164CDFF85CB009EB4907009008E0384668
:101A0000BDE8F88F04D10098FFF7E8FE4FF0FF35EE
:101A1000606831184BF827100BEB8700C0F804A062
:101A200080F808800020FFF7A1FEA0706D1E002D39
:101A3000E8D1B8F1000F02D04846FFF77DFF60788B
:101A400010B90120FFF7ECFE0020D9E710000020BC
:101A5000AC0000200C4810B500214170416002220A
:101A600082700A4A08464FF6FF7400BF00EB40033D
:101A700042F8234002EB830359601972401CC0B244
:101A80000228F3D310BD000010000020AC0000209D
:101A90002DE9F047204C61680844606020780028F8
:101AA00032D101202070A0781C4F00EB400057F885
:101AB00020506068A84224D36068401B6060012603
:101AC000FFF78AFE82464FF0FF394FF0020804E02C
:101AD00003D15046FFF782FE4E46A078022801D27D
:101AE000FFF764FE2846FFF741FE02280ED000EB08
:101AF000400157F82150002DF2D0A070761E002E24
:101B0000E6D14FF000002070BDE8F0874FF00000F4
:101B1000FFF786FE4046F0E710000020AC000020F2
:101B2000010202030405060708090A0B0C0D0E0F3B
:101B3000101000000000000000000102030406076E
:101B400008090000000001020304FF000100020078
:101B50000100030001000200010004000100020076
:101B60000100030001000200010005000100020065
:101B70000100030001000200010004000100020056
:101B80000100030001000200010006000100020044
:101B90000100030001000200010004000100020036
:101BA0000100030001000200010005000100020025
:101BB0000100030001000200010004000100020016
:101BC0000100030001000200010007000100020003
:101BD00001000300010002000100040001000200F6
:101BE00001000300010002000100050001000200E5
:101BF00001000300010002000100040001000200D6
:101C000001000300010002000100060001000200C3
:101C100001000300010002000100040001000200B5
:101C200001000300010002000100050001000200A4
:101C30000100030001000200010004000100020095
:101C40000100030001000200010000006C1C0008FC
:101C5000000000201C00000028010008881C00086B
:101C60001C0000200C0700004401000801000000D7
:101C7000100000000000000000127A0000000000C8
:081C800000000000000000005C
:04000005080000ED02
:00000001FF
